{
  "_format": "hh-sol-artifact-1",
  "contractName": "NFTMarket",
  "sourceName": "contracts/NFTMarket.sol",
  "abi": [
    {
      "inputs": [],
      "stateMutability": "nonpayable",
      "type": "constructor"
    },
    {
      "anonymous": false,
      "inputs": [
        {
          "indexed": true,
          "internalType": "uint256",
          "name": "itemId",
          "type": "uint256"
        },
        {
          "indexed": true,
          "internalType": "address",
          "name": "nftContract",
          "type": "address"
        },
        {
          "indexed": true,
          "internalType": "uint256",
          "name": "tokenId",
          "type": "uint256"
        },
        {
          "indexed": false,
          "internalType": "uint256",
          "name": "collectionId",
          "type": "uint256"
        },
        {
          "indexed": false,
          "internalType": "address",
          "name": "seller",
          "type": "address"
        },
        {
          "indexed": false,
          "internalType": "address",
          "name": "owner",
          "type": "address"
        },
        {
          "indexed": false,
          "internalType": "uint256",
          "name": "price",
          "type": "uint256"
        },
        {
          "indexed": false,
          "internalType": "bool",
          "name": "sold",
          "type": "bool"
        }
      ],
      "name": "MarketItemCreated",
      "type": "event"
    },
    {
      "anonymous": false,
      "inputs": [
        {
          "indexed": false,
          "internalType": "address",
          "name": "player",
          "type": "address"
        }
      ],
      "name": "WhiteListAdded",
      "type": "event"
    },
    {
      "inputs": [
        {
          "internalType": "address[]",
          "name": "playerAddresses",
          "type": "address[]"
        }
      ],
      "name": "addCollectionToWhitelist",
      "outputs": [],
      "stateMutability": "nonpayable",
      "type": "function"
    },
    {
      "inputs": [
        {
          "internalType": "address",
          "name": "nftContract",
          "type": "address"
        },
        {
          "internalType": "uint256",
          "name": "itemId",
          "type": "uint256"
        }
      ],
      "name": "buyMarketSale",
      "outputs": [],
      "stateMutability": "nonpayable",
      "type": "function"
    },
    {
      "inputs": [
        {
          "internalType": "uint256",
          "name": "itemId",
          "type": "uint256"
        }
      ],
      "name": "buyingFee",
      "outputs": [
        {
          "internalType": "uint256",
          "name": "",
          "type": "uint256"
        }
      ],
      "stateMutability": "view",
      "type": "function"
    },
    {
      "inputs": [
        {
          "internalType": "uint256",
          "name": "itemId",
          "type": "uint256"
        }
      ],
      "name": "buyingPrice",
      "outputs": [
        {
          "internalType": "uint256",
          "name": "",
          "type": "uint256"
        }
      ],
      "stateMutability": "view",
      "type": "function"
    },
    {
      "inputs": [
        {
          "internalType": "address",
          "name": "nftContract",
          "type": "address"
        },
        {
          "internalType": "uint256",
          "name": "tokenId",
          "type": "uint256"
        },
        {
          "internalType": "uint256",
          "name": "collectionId",
          "type": "uint256"
        },
        {
          "internalType": "uint256",
          "name": "price",
          "type": "uint256"
        }
      ],
      "name": "createMarketItem",
      "outputs": [],
      "stateMutability": "nonpayable",
      "type": "function"
    },
    {
      "inputs": [
        {
          "internalType": "address",
          "name": "nftContract",
          "type": "address"
        },
        {
          "internalType": "uint256",
          "name": "itemId",
          "type": "uint256"
        },
        {
          "internalType": "uint256",
          "name": "price",
          "type": "uint256"
        }
      ],
      "name": "createMarketSale",
      "outputs": [],
      "stateMutability": "nonpayable",
      "type": "function"
    },
    {
      "inputs": [
        {
          "internalType": "uint256",
          "name": "collectionId",
          "type": "uint256"
        }
      ],
      "name": "fetchItemsCreated",
      "outputs": [
        {
          "components": [
            {
              "internalType": "uint256",
              "name": "itemId",
              "type": "uint256"
            },
            {
              "internalType": "address",
              "name": "nftContract",
              "type": "address"
            },
            {
              "internalType": "uint256",
              "name": "tokenId",
              "type": "uint256"
            },
            {
              "internalType": "uint256",
              "name": "collectionId",
              "type": "uint256"
            },
            {
              "internalType": "address payable",
              "name": "seller",
              "type": "address"
            },
            {
              "internalType": "address payable",
              "name": "owner",
              "type": "address"
            },
            {
              "internalType": "uint256",
              "name": "price",
              "type": "uint256"
            },
            {
              "internalType": "bool",
              "name": "sold",
              "type": "bool"
            }
          ],
          "internalType": "struct NFTMarket.MarketItem[]",
          "name": "",
          "type": "tuple[]"
        }
      ],
      "stateMutability": "view",
      "type": "function"
    },
    {
      "inputs": [
        {
          "internalType": "uint256",
          "name": "collectionId",
          "type": "uint256"
        }
      ],
      "name": "fetchMarketItems",
      "outputs": [
        {
          "components": [
            {
              "internalType": "uint256",
              "name": "itemId",
              "type": "uint256"
            },
            {
              "internalType": "address",
              "name": "nftContract",
              "type": "address"
            },
            {
              "internalType": "uint256",
              "name": "tokenId",
              "type": "uint256"
            },
            {
              "internalType": "uint256",
              "name": "collectionId",
              "type": "uint256"
            },
            {
              "internalType": "address payable",
              "name": "seller",
              "type": "address"
            },
            {
              "internalType": "address payable",
              "name": "owner",
              "type": "address"
            },
            {
              "internalType": "uint256",
              "name": "price",
              "type": "uint256"
            },
            {
              "internalType": "bool",
              "name": "sold",
              "type": "bool"
            }
          ],
          "internalType": "struct NFTMarket.MarketItem[]",
          "name": "",
          "type": "tuple[]"
        }
      ],
      "stateMutability": "view",
      "type": "function"
    },
    {
      "inputs": [
        {
          "internalType": "uint256",
          "name": "collectionId",
          "type": "uint256"
        }
      ],
      "name": "fetchMyNFTS",
      "outputs": [
        {
          "components": [
            {
              "internalType": "uint256",
              "name": "itemId",
              "type": "uint256"
            },
            {
              "internalType": "address",
              "name": "nftContract",
              "type": "address"
            },
            {
              "internalType": "uint256",
              "name": "tokenId",
              "type": "uint256"
            },
            {
              "internalType": "uint256",
              "name": "collectionId",
              "type": "uint256"
            },
            {
              "internalType": "address payable",
              "name": "seller",
              "type": "address"
            },
            {
              "internalType": "address payable",
              "name": "owner",
              "type": "address"
            },
            {
              "internalType": "uint256",
              "name": "price",
              "type": "uint256"
            },
            {
              "internalType": "bool",
              "name": "sold",
              "type": "bool"
            }
          ],
          "internalType": "struct NFTMarket.MarketItem[]",
          "name": "",
          "type": "tuple[]"
        }
      ],
      "stateMutability": "view",
      "type": "function"
    },
    {
      "inputs": [
        {
          "internalType": "uint256",
          "name": "collectionId",
          "type": "uint256"
        }
      ],
      "name": "getCreatedItemCountForCollection",
      "outputs": [
        {
          "internalType": "uint256",
          "name": "",
          "type": "uint256"
        }
      ],
      "stateMutability": "view",
      "type": "function"
    },
    {
      "inputs": [],
      "name": "getCurrentItemId",
      "outputs": [
        {
          "internalType": "uint256",
          "name": "",
          "type": "uint256"
        }
      ],
      "stateMutability": "view",
      "type": "function"
    },
    {
      "inputs": [
        {
          "internalType": "uint256",
          "name": "collectionId",
          "type": "uint256"
        }
      ],
      "name": "getItemCountOwnedByAccount",
      "outputs": [
        {
          "internalType": "uint256",
          "name": "",
          "type": "uint256"
        }
      ],
      "stateMutability": "view",
      "type": "function"
    },
    {
      "inputs": [],
      "name": "getListingPrice",
      "outputs": [
        {
          "internalType": "uint256",
          "name": "",
          "type": "uint256"
        }
      ],
      "stateMutability": "view",
      "type": "function"
    },
    {
      "inputs": [
        {
          "internalType": "address",
          "name": "player",
          "type": "address"
        },
        {
          "internalType": "uint256",
          "name": "collectionId",
          "type": "uint256"
        }
      ],
      "name": "isAllowed",
      "outputs": [
        {
          "internalType": "bool",
          "name": "",
          "type": "bool"
        }
      ],
      "stateMutability": "view",
      "type": "function"
    },
    {
      "inputs": [
        {
          "internalType": "uint256",
          "name": "tokenId",
          "type": "uint256"
        }
      ],
      "name": "isCreatedMarketItem",
      "outputs": [
        {
          "internalType": "bool",
          "name": "",
          "type": "bool"
        }
      ],
      "stateMutability": "view",
      "type": "function"
    },
    {
      "inputs": [
        {
          "internalType": "address",
          "name": "nftContract",
          "type": "address"
        },
        {
          "internalType": "uint256",
          "name": "itemId",
          "type": "uint256"
        }
      ],
      "name": "payBuyingFeeToAdmin",
      "outputs": [],
      "stateMutability": "nonpayable",
      "type": "function"
    },
    {
      "inputs": [
        {
          "internalType": "address",
          "name": "nftContract",
          "type": "address"
        },
        {
          "internalType": "address",
          "name": "to",
          "type": "address"
        },
        {
          "internalType": "uint256",
          "name": "costs",
          "type": "uint256"
        }
      ],
      "name": "payWithADMC",
      "outputs": [],
      "stateMutability": "nonpayable",
      "type": "function"
    },
    {
      "inputs": [
        {
          "internalType": "uint256",
          "name": "_collectionId",
          "type": "uint256"
        }
      ],
      "name": "setCollectionForWhitelist",
      "outputs": [],
      "stateMutability": "nonpayable",
      "type": "function"
    },
    {
      "inputs": [
        {
          "internalType": "uint256",
          "name": "price",
          "type": "uint256"
        }
      ],
      "name": "setListingPrice",
      "outputs": [],
      "stateMutability": "nonpayable",
      "type": "function"
    }
  ],
  "bytecode": "0x6080604052655af3107a400060075534801561001a57600080fd5b50600160008190555033600360006101000a81548173ffffffffffffffffffffffffffffffffffffffff021916908373ffffffffffffffffffffffffffffffffffffffff16021790555061363c806100736000396000f3fe608060405234801561001057600080fd5b50600436106101215760003560e01c806368eb4949116100ad578063bab5952311610071578063bab595231461032a578063bd3ecad114610346578063f7395d3414610376578063f8350ed0146103a6578063fda59f20146103d657610121565b806368eb4949146102885780637c726b69146102a657806384b7a469146102c2578063925aca7e146102de578063aaa464b5146102fa57610121565b80633155cd09116100f45780633155cd09146101ac578063315b3f5f146101dc5780634275fb2c1461020c578063442970e21461023c578063599ba2341461026c57610121565b80630442a92114610126578063083aeb9c1461014257806312e855851461017257806321cf91ac14610190575b600080fd5b610140600480360381019061013b919061275a565b6103f2565b005b61015c60048036038101906101579190612913565b610487565b6040516101699190612e88565b60405180910390f35b61017a6104ca565b6040516101879190612e88565b60405180910390f35b6101aa60048036038101906101a5919061279a565b6104d4565b005b6101c660048036038101906101c19190612913565b61078e565b6040516101d39190612ceb565b60405180910390f35b6101f660048036038101906101f19190612913565b610a98565b6040516102039190612ceb565b60405180910390f35b61022660048036038101906102219190612913565b610e63565b6040516102339190612e88565b60405180910390f35b61025660048036038101906102519190612913565b610ebd565b6040516102639190612ceb565b60405180910390f35b610286600480360381019061028191906127ed565b611288565b005b61029061185c565b60405161029d9190612e88565b60405180910390f35b6102c060048036038101906102bb9190612913565b61186d565b005b6102dc60048036038101906102d79190612707565b61196c565b005b6102f860048036038101906102f39190612854565b611c28565b005b610314600480360381019061030f9190612913565b611e71565b6040516103219190612d0d565b60405180910390f35b610344600480360381019061033f919061275a565b611ea2565b005b610360600480360381019061035b9190612913565b6122b9565b60405161036d9190612e88565b60405180910390f35b610390600480360381019061038b9190612913565b6122d6565b60405161039d9190612e88565b60405180910390f35b6103c060048036038101906103bb919061275a565b61230e565b6040516103cd9190612d0d565b60405180910390f35b6103f060048036038101906103eb9190612913565b612378565b005b60026000541415610438576040517f08c379a000000000000000000000000000000000000000000000000000000000815260040161042f90612e28565b60405180910390fd5b6002600081905550600061044b82610487565b905061047a83600360009054906101000a900473ffffffffffffffffffffffffffffffffffffffff168361196c565b5060016000819055505050565b60008060086000848152602001908152602001600020600601549050600060026064836104b49190613018565b6104be9190613018565b90508092505050919050565b6000600754905090565b6002600054141561051a576040517f08c379a000000000000000000000000000000000000000000000000000000000815260040161051190612e28565b60405180910390fd5b60026000819055506000600860008481526020019081526020016000206006015490506000600860008581526020019081526020016000206003015490508282141561059b576040517f08c379a000000000000000000000000000000000000000000000000000000000815260040161059290612da8565b60405180910390fd5b606483116105de576040517f08c379a00000000000000000000000000000000000000000000000000000000081526004016105d590612d88565b60405180910390fd5b60006008600086815260200190815260200160002060050160006101000a81548173ffffffffffffffffffffffffffffffffffffffff021916908373ffffffffffffffffffffffffffffffffffffffff160217905550336008600086815260200190815260200160002060040160006101000a81548173ffffffffffffffffffffffffffffffffffffffff021916908373ffffffffffffffffffffffffffffffffffffffff16021790555060006008600086815260200190815260200160002060070160006101000a81548160ff021916908315150217905550633b9aca00836106c89190613049565b60086000868152602001908152602001600020600601819055506106ec6002612382565b6001600a60003373ffffffffffffffffffffffffffffffffffffffff1673ffffffffffffffffffffffffffffffffffffffff1681526020019081526020016000206000838152602001908152602001600020600082825461074d91906130a3565b925050819055506001600b600083815260200190815260200160002060008282546107789190612fc2565b9250508190555050506001600081905550505050565b6060600061079c60016123de565b9050600080600b60008681526020019081526020016000205467ffffffffffffffff8111156107ce576107cd61326b565b5b60405190808252806020026020018201604052801561080757816020015b6107f4612402565b8152602001906001900390816107ec5790505b50905060005b83811015610a8c57600073ffffffffffffffffffffffffffffffffffffffff166008600060018461083e9190612fc2565b815260200190815260200160002060050160009054906101000a900473ffffffffffffffffffffffffffffffffffffffff1673ffffffffffffffffffffffffffffffffffffffff161480156108b4575085600860006001846108a09190612fc2565b815260200190815260200160002060030154145b15610a79576000600860006001846108cc9190612fc2565b815260200190815260200160002060000154905060006008600083815260200190815260200160002090508060405180610100016040529081600082015481526020016001820160009054906101000a900473ffffffffffffffffffffffffffffffffffffffff1673ffffffffffffffffffffffffffffffffffffffff1673ffffffffffffffffffffffffffffffffffffffff16815260200160028201548152602001600382015481526020016004820160009054906101000a900473ffffffffffffffffffffffffffffffffffffffff1673ffffffffffffffffffffffffffffffffffffffff1673ffffffffffffffffffffffffffffffffffffffff1681526020016005820160009054906101000a900473ffffffffffffffffffffffffffffffffffffffff1673ffffffffffffffffffffffffffffffffffffffff1673ffffffffffffffffffffffffffffffffffffffff168152602001600682015481526020016007820160009054906101000a900460ff161515151581525050848681518110610a5c57610a5b61323c565b5b6020026020010181905250600185610a749190612fc2565b945050505b8080610a8490613195565b91505061080d565b50809350505050919050565b60606000610aa660016123de565b905060008060005b83811015610b7c573373ffffffffffffffffffffffffffffffffffffffff1660086000600184610ade9190612fc2565b815260200190815260200160002060050160009054906101000a900473ffffffffffffffffffffffffffffffffffffffff1673ffffffffffffffffffffffffffffffffffffffff16148015610b5457508560086000600184610b409190612fc2565b815260200190815260200160002060030154145b15610b6957600183610b669190612fc2565b92505b8080610b7490613195565b915050610aae565b5060008267ffffffffffffffff811115610b9957610b9861326b565b5b604051908082528060200260200182016040528015610bd257816020015b610bbf612402565b815260200190600190039081610bb75790505b50905060005b84811015610e56573373ffffffffffffffffffffffffffffffffffffffff1660086000600184610c089190612fc2565b815260200190815260200160002060050160009054906101000a900473ffffffffffffffffffffffffffffffffffffffff1673ffffffffffffffffffffffffffffffffffffffff16148015610c7e57508660086000600184610c6a9190612fc2565b815260200190815260200160002060030154145b15610e4357600060086000600184610c969190612fc2565b815260200190815260200160002060000154905060006008600083815260200190815260200160002090508060405180610100016040529081600082015481526020016001820160009054906101000a900473ffffffffffffffffffffffffffffffffffffffff1673ffffffffffffffffffffffffffffffffffffffff1673ffffffffffffffffffffffffffffffffffffffff16815260200160028201548152602001600382015481526020016004820160009054906101000a900473ffffffffffffffffffffffffffffffffffffffff1673ffffffffffffffffffffffffffffffffffffffff1673ffffffffffffffffffffffffffffffffffffffff1681526020016005820160009054906101000a900473ffffffffffffffffffffffffffffffffffffffff1673ffffffffffffffffffffffffffffffffffffffff1673ffffffffffffffffffffffffffffffffffffffff168152602001600682015481526020016007820160009054906101000a900460ff161515151581525050848681518110610e2657610e2561323c565b5b6020026020010181905250600185610e3e9190612fc2565b945050505b8080610e4e90613195565b915050610bd8565b5080945050505050919050565b6000600a60003373ffffffffffffffffffffffffffffffffffffffff1673ffffffffffffffffffffffffffffffffffffffff1681526020019081526020016000206000838152602001908152602001600020549050919050565b60606000610ecb60016123de565b905060008060005b83811015610fa1573373ffffffffffffffffffffffffffffffffffffffff1660086000600184610f039190612fc2565b815260200190815260200160002060040160009054906101000a900473ffffffffffffffffffffffffffffffffffffffff1673ffffffffffffffffffffffffffffffffffffffff16148015610f7957508560086000600184610f659190612fc2565b815260200190815260200160002060030154145b15610f8e57600183610f8b9190612fc2565b92505b8080610f9990613195565b915050610ed3565b5060008267ffffffffffffffff811115610fbe57610fbd61326b565b5b604051908082528060200260200182016040528015610ff757816020015b610fe4612402565b815260200190600190039081610fdc5790505b50905060005b8481101561127b573373ffffffffffffffffffffffffffffffffffffffff166008600060018461102d9190612fc2565b815260200190815260200160002060040160009054906101000a900473ffffffffffffffffffffffffffffffffffffffff1673ffffffffffffffffffffffffffffffffffffffff161480156110a35750866008600060018461108f9190612fc2565b815260200190815260200160002060030154145b15611268576000600860006001846110bb9190612fc2565b815260200190815260200160002060000154905060006008600083815260200190815260200160002090508060405180610100016040529081600082015481526020016001820160009054906101000a900473ffffffffffffffffffffffffffffffffffffffff1673ffffffffffffffffffffffffffffffffffffffff1673ffffffffffffffffffffffffffffffffffffffff16815260200160028201548152602001600382015481526020016004820160009054906101000a900473ffffffffffffffffffffffffffffffffffffffff1673ffffffffffffffffffffffffffffffffffffffff1673ffffffffffffffffffffffffffffffffffffffff1681526020016005820160009054906101000a900473ffffffffffffffffffffffffffffffffffffffff1673ffffffffffffffffffffffffffffffffffffffff1673ffffffffffffffffffffffffffffffffffffffff168152602001600682015481526020016007820160009054906101000a900460ff16151515158152505084868151811061124b5761124a61323c565b5b60200260200101819052506001856112639190612fc2565b945050505b808061127390613195565b915050610ffd565b5080945050505050919050565b600260005414156112ce576040517f08c379a00000000000000000000000000000000000000000000000000000000081526004016112c590612e28565b60405180910390fd5b600260008190555060008473ffffffffffffffffffffffffffffffffffffffff1663a6d7135a846040518263ffffffff1660e01b81526004016113119190612e88565b60006040518083038186803b15801561132957600080fd5b505afa15801561133d573d6000803e3d6000fd5b505050506040513d6000823e3d601f19601f8201168201806040525081019061136691906128ca565b60600151905060008060096000878152602001908152602001600020541161138e5782611421565b8573ffffffffffffffffffffffffffffffffffffffff1663a6d7135a856040518263ffffffff1660e01b81526004016113c79190612e88565b60006040518083038186803b1580156113df57600080fd5b505afa1580156113f3573d6000803e3d6000fd5b505050506040513d6000823e3d601f19601f8201168201806040525081019061141c91906128ca565b60a001515b905081600b6000868152602001908152602001600020541115611479576040517f08c379a000000000000000000000000000000000000000000000000000000000815260040161147090612dc8565b60405180910390fd5b606481116114bc576040517f08c379a00000000000000000000000000000000000000000000000000000000081526004016114b390612d68565b60405180910390fd5b6114eb86600360009054906101000a900473ffffffffffffffffffffffffffffffffffffffff1660075461196c565b6114f560016123ec565b600061150160016123de565b90506040518061010001604052808281526020018873ffffffffffffffffffffffffffffffffffffffff1681526020018781526020018681526020013373ffffffffffffffffffffffffffffffffffffffff168152602001600073ffffffffffffffffffffffffffffffffffffffff168152602001633b9aca00846115869190613049565b815260200160001515815250600860008381526020019081526020016000206000820151816000015560208201518160010160006101000a81548173ffffffffffffffffffffffffffffffffffffffff021916908373ffffffffffffffffffffffffffffffffffffffff160217905550604082015181600201556060820151816003015560808201518160040160006101000a81548173ffffffffffffffffffffffffffffffffffffffff021916908373ffffffffffffffffffffffffffffffffffffffff16021790555060a08201518160050160006101000a81548173ffffffffffffffffffffffffffffffffffffffff021916908373ffffffffffffffffffffffffffffffffffffffff16021790555060c0820151816006015560e08201518160070160006101000a81548160ff0219169083151502179055509050508060096000888152602001908152602001600020819055508673ffffffffffffffffffffffffffffffffffffffff166323b872dd3330896040518463ffffffff1660e01b815260040161171a93929190612cb4565b600060405180830381600087803b15801561173457600080fd5b505af1158015611748573d6000803e3d6000fd5b505050508673ffffffffffffffffffffffffffffffffffffffff166371e8069c876040518263ffffffff1660e01b81526004016117859190612e88565b600060405180830381600087803b15801561179f57600080fd5b505af11580156117b3573d6000803e3d6000fd5b50505050858773ffffffffffffffffffffffffffffffffffffffff16827f79f8c05bb09c0956360a67fcd99d7cd58b143c2e5965443ccf2238950961eac588336000633b9aca00896118059190613049565b6000604051611818959493929190612ea3565b60405180910390a46001600b600087815260200190815260200160002060008282546118449190612fc2565b92505081905550505050600160008190555050505050565b600061186860016123de565b905090565b600360009054906101000a900473ffffffffffffffffffffffffffffffffffffffff1673ffffffffffffffffffffffffffffffffffffffff163373ffffffffffffffffffffffffffffffffffffffff16146118fd576040517f08c379a00000000000000000000000000000000000000000000000000000000081526004016118f490612de8565b60405180910390fd5b60026000541415611943576040517f08c379a000000000000000000000000000000000000000000000000000000000815260040161193a90612e28565b60405180910390fd5b6002600081905550633b9aca008161195b9190613049565b600781905550600160008190555050565b60008373ffffffffffffffffffffffffffffffffffffffff1663280aada76040518163ffffffff1660e01b815260040160206040518083038186803b1580156119b457600080fd5b505afa1580156119c8573d6000803e3d6000fd5b505050506040513d601f19601f820116820180604052508101906119ec91906126da565b9050600081905060008173ffffffffffffffffffffffffffffffffffffffff1663dd62ed3e33306040518363ffffffff1660e01b8152600401611a30929190612c8b565b60206040518083038186803b158015611a4857600080fd5b505afa158015611a5c573d6000803e3d6000fd5b505050506040513d601f19601f82011682018060405250810190611a809190612940565b905083811015611ac5576040517f08c379a0000000000000000000000000000000000000000000000000000000008152600401611abc90612e68565b60405180910390fd5b838273ffffffffffffffffffffffffffffffffffffffff166370a08231336040518263ffffffff1660e01b8152600401611aff9190612c70565b60206040518083038186803b158015611b1757600080fd5b505afa158015611b2b573d6000803e3d6000fd5b505050506040513d601f19601f82011682018060405250810190611b4f9190612940565b1015611b90576040517f08c379a0000000000000000000000000000000000000000000000000000000008152600401611b8790612e08565b60405180910390fd5b8173ffffffffffffffffffffffffffffffffffffffff166323b872dd3387876040518463ffffffff1660e01b8152600401611bcd93929190612cb4565b602060405180830381600087803b158015611be757600080fd5b505af1158015611bfb573d6000803e3d6000fd5b505050506040513d601f19601f82011682018060405250810190611c1f919061289d565b50505050505050565b600360009054906101000a900473ffffffffffffffffffffffffffffffffffffffff1673ffffffffffffffffffffffffffffffffffffffff163373ffffffffffffffffffffffffffffffffffffffff1614611cb8576040517f08c379a0000000000000000000000000000000000000000000000000000000008152600401611caf90612de8565b60405180910390fd5b60026000541415611cfe576040517f08c379a0000000000000000000000000000000000000000000000000000000008152600401611cf590612e28565b60405180910390fd5b600260008190555060005b8151811015611e6557600160056000848481518110611d2b57611d2a61323c565b5b602002602001015173ffffffffffffffffffffffffffffffffffffffff1673ffffffffffffffffffffffffffffffffffffffff16815260200190815260200160002060006101000a81548160ff0219169083151502179055506004828281518110611d9957611d9861323c565b5b60200260200101519080600181540180825580915050600190039060005260206000200160009091909190916101000a81548173ffffffffffffffffffffffffffffffffffffffff021916908373ffffffffffffffffffffffffffffffffffffffff1602179055507fbf309892cce19064e6d63ba3339f893b199c8cb5041fc6731702cb18e805d291828281518110611e3557611e3461323c565b5b6020026020010151604051611e4a9190612c70565b60405180910390a18080611e5d90613195565b915050611d09565b50600160008190555050565b60008060009050600060096000858152602001908152602001600020541115611e9957600190505b80915050919050565b60026000541415611ee8576040517f08c379a0000000000000000000000000000000000000000000000000000000008152600401611edf90612e28565b60405180910390fd5b600260008190555060006008600083815260200190815260200160002060060154905060006008600084815260200190815260200160002060030154905060006008600085815260200190815260200160002060020154905060008573ffffffffffffffffffffffffffffffffffffffff1663a6d7135a846040518263ffffffff1660e01b8152600401611f7c9190612e88565b60006040518083038186803b158015611f9457600080fd5b505afa158015611fa8573d6000803e3d6000fd5b505050506040513d6000823e3d601f19601f82011682018060405250810190611fd191906128ca565b608001519050611fe1338461230e565b612020576040517f08c379a000000000000000000000000000000000000000000000000000000000815260040161201790612d48565b60405180910390fd5b80600a60003373ffffffffffffffffffffffffffffffffffffffff1673ffffffffffffffffffffffffffffffffffffffff16815260200190815260200160002060008581526020019081526020016000205411156120b3576040517f08c379a00000000000000000000000000000000000000000000000000000000081526004016120aa90612e48565b60405180910390fd5b6120fc866008600088815260200190815260200160002060040160009054906101000a900473ffffffffffffffffffffffffffffffffffffffff166120f7886122d6565b61196c565b8573ffffffffffffffffffffffffffffffffffffffff166323b872dd3033856040518463ffffffff1660e01b815260040161213993929190612cb4565b600060405180830381600087803b15801561215357600080fd5b505af1158015612167573d6000803e3d6000fd5b50505050336008600087815260200190815260200160002060050160006101000a81548173ffffffffffffffffffffffffffffffffffffffff021916908373ffffffffffffffffffffffffffffffffffffffff16021790555060016008600087815260200190815260200160002060070160006101000a81548160ff0219169083151502179055506001600a60003373ffffffffffffffffffffffffffffffffffffffff1673ffffffffffffffffffffffffffffffffffffffff168152602001908152602001600020600085815260200190815260200160002060008282546122509190612fc2565b925050819055506000600b600085815260200190815260200160002054111561229f576001600b6000858152602001908152602001600020600082825461229791906130a3565b925050819055505b6122a960026123ec565b5050505060016000819055505050565b6000600b6000838152602001908152602001600020549050919050565b600080600860008481526020019081526020016000206006015490506122fb83610487565b8161230691906130a3565b915050919050565b600060065482146123225760019050612372565b600560008473ffffffffffffffffffffffffffffffffffffffff1673ffffffffffffffffffffffffffffffffffffffff16815260200190815260200160002060009054906101000a900460ff1690505b92915050565b8060068190555050565b600081600001549050600081116123ce576040517f08c379a00000000000000000000000000000000000000000000000000000000081526004016123c590612d28565b60405180910390fd5b6001810382600001819055505050565b600081600001549050919050565b6001816000016000828254019250508190555050565b60405180610100016040528060008152602001600073ffffffffffffffffffffffffffffffffffffffff1681526020016000815260200160008152602001600073ffffffffffffffffffffffffffffffffffffffff168152602001600073ffffffffffffffffffffffffffffffffffffffff168152602001600081526020016000151581525090565b600061249e61249984612f1b565b612ef6565b905080838252602082019050828560208602820111156124c1576124c06132a9565b5b60005b858110156124f157816124d7888261253d565b8452602084019350602083019250506001810190506124c4565b5050509392505050565b600061250e61250984612f47565b612ef6565b90508281526020810184848401111561252a576125296132ae565b5b612535848285613131565b509392505050565b60008135905061254c816135c1565b92915050565b600081519050612561816135c1565b92915050565b600082601f83011261257c5761257b61329a565b5b813561258c84826020860161248b565b91505092915050565b6000815190506125a4816135d8565b92915050565b600082601f8301126125bf576125be61329a565b5b81516125cf8482602086016124fb565b91505092915050565b600060c082840312156125ee576125ed61329f565b5b6125f860c0612ef6565b90506000612608848285016126c5565b600083015250602082015167ffffffffffffffff81111561262c5761262b6132a4565b5b612638848285016125aa565b602083015250604082015167ffffffffffffffff81111561265c5761265b6132a4565b5b612668848285016125aa565b604083015250606061267c848285016126c5565b6060830152506080612690848285016126c5565b60808301525060a06126a4848285016126c5565b60a08301525092915050565b6000813590506126bf816135ef565b92915050565b6000815190506126d4816135ef565b92915050565b6000602082840312156126f0576126ef6132b8565b5b60006126fe84828501612552565b91505092915050565b6000806000606084860312156127205761271f6132b8565b5b600061272e8682870161253d565b935050602061273f8682870161253d565b9250506040612750868287016126b0565b9150509250925092565b60008060408385031215612771576127706132b8565b5b600061277f8582860161253d565b9250506020612790858286016126b0565b9150509250929050565b6000806000606084860312156127b3576127b26132b8565b5b60006127c18682870161253d565b93505060206127d2868287016126b0565b92505060406127e3868287016126b0565b9150509250925092565b60008060008060808587031215612807576128066132b8565b5b60006128158782880161253d565b9450506020612826878288016126b0565b9350506040612837878288016126b0565b9250506060612848878288016126b0565b91505092959194509250565b60006020828403121561286a576128696132b8565b5b600082013567ffffffffffffffff811115612888576128876132b3565b5b61289484828501612567565b91505092915050565b6000602082840312156128b3576128b26132b8565b5b60006128c184828501612595565b91505092915050565b6000602082840312156128e0576128df6132b8565b5b600082015167ffffffffffffffff8111156128fe576128fd6132b3565b5b61290a848285016125d8565b91505092915050565b600060208284031215612929576129286132b8565b5b6000612937848285016126b0565b91505092915050565b600060208284031215612956576129556132b8565b5b6000612964848285016126c5565b91505092915050565b60006129798383612bb0565b6101008301905092915050565b61298f816130e9565b82525050565b61299e816130d7565b82525050565b6129ad816130d7565b82525050565b60006129be82612f88565b6129c88185612fa0565b93506129d383612f78565b8060005b83811015612a045781516129eb888261296d565b97506129f683612f93565b9250506001810190506129d7565b5085935050505092915050565b612a1a816130fb565b82525050565b612a29816130fb565b82525050565b6000612a3c601b83612fb1565b9150612a47826132ce565b602082019050919050565b6000612a5f602a83612fb1565b9150612a6a826132f7565b604082019050919050565b6000612a82601f83612fb1565b9150612a8d82613346565b602082019050919050565b6000612aa5602683612fb1565b9150612ab08261336f565b604082019050919050565b6000612ac8602d83612fb1565b9150612ad3826133be565b604082019050919050565b6000612aeb604483612fb1565b9150612af68261340d565b606082019050919050565b6000612b0e601383612fb1565b9150612b1982613482565b602082019050919050565b6000612b31603083612fb1565b9150612b3c826134ab565b604082019050919050565b6000612b54601f83612fb1565b9150612b5f826134fa565b602082019050919050565b6000612b77603383612fb1565b9150612b8282613523565b604082019050919050565b6000612b9a602783612fb1565b9150612ba582613572565b604082019050919050565b61010082016000820151612bc76000850182612c52565b506020820151612bda6020850182612995565b506040820151612bed6040850182612c52565b506060820151612c006060850182612c52565b506080820151612c136080850182612986565b5060a0820151612c2660a0850182612986565b5060c0820151612c3960c0850182612c52565b5060e0820151612c4c60e0850182612a11565b50505050565b612c5b81613127565b82525050565b612c6a81613127565b82525050565b6000602082019050612c8560008301846129a4565b92915050565b6000604082019050612ca060008301856129a4565b612cad60208301846129a4565b9392505050565b6000606082019050612cc960008301866129a4565b612cd660208301856129a4565b612ce36040830184612c61565b949350505050565b60006020820190508181036000830152612d0581846129b3565b905092915050565b6000602082019050612d226000830184612a20565b92915050565b60006020820190508181036000830152612d4181612a2f565b9050919050565b60006020820190508181036000830152612d6181612a52565b9050919050565b60006020820190508181036000830152612d8181612a75565b9050919050565b60006020820190508181036000830152612da181612a98565b9050919050565b60006020820190508181036000830152612dc181612abb565b9050919050565b60006020820190508181036000830152612de181612ade565b9050919050565b60006020820190508181036000830152612e0181612b01565b9050919050565b60006020820190508181036000830152612e2181612b24565b9050919050565b60006020820190508181036000830152612e4181612b47565b9050919050565b60006020820190508181036000830152612e6181612b6a565b9050919050565b60006020820190508181036000830152612e8181612b8d565b9050919050565b6000602082019050612e9d6000830184612c61565b92915050565b600060a082019050612eb86000830188612c61565b612ec560208301876129a4565b612ed260408301866129a4565b612edf6060830185612c61565b612eec6080830184612a20565b9695505050505050565b6000612f00612f11565b9050612f0c8282613164565b919050565b6000604051905090565b600067ffffffffffffffff821115612f3657612f3561326b565b5b602082029050602081019050919050565b600067ffffffffffffffff821115612f6257612f6161326b565b5b612f6b826132bd565b9050602081019050919050565b6000819050602082019050919050565b600081519050919050565b6000602082019050919050565b600082825260208201905092915050565b600082825260208201905092915050565b6000612fcd82613127565b9150612fd883613127565b9250827fffffffffffffffffffffffffffffffffffffffffffffffffffffffffffffffff0382111561300d5761300c6131de565b5b828201905092915050565b600061302382613127565b915061302e83613127565b92508261303e5761303d61320d565b5b828204905092915050565b600061305482613127565b915061305f83613127565b9250817fffffffffffffffffffffffffffffffffffffffffffffffffffffffffffffffff0483118215151615613098576130976131de565b5b828202905092915050565b60006130ae82613127565b91506130b983613127565b9250828210156130cc576130cb6131de565b5b828203905092915050565b60006130e282613107565b9050919050565b60006130f482613107565b9050919050565b60008115159050919050565b600073ffffffffffffffffffffffffffffffffffffffff82169050919050565b6000819050919050565b60005b8381101561314f578082015181840152602081019050613134565b8381111561315e576000848401525b50505050565b61316d826132bd565b810181811067ffffffffffffffff8211171561318c5761318b61326b565b5b80604052505050565b60006131a082613127565b91507fffffffffffffffffffffffffffffffffffffffffffffffffffffffffffffffff8214156131d3576131d26131de565b5b600182019050919050565b7f4e487b7100000000000000000000000000000000000000000000000000000000600052601160045260246000fd5b7f4e487b7100000000000000000000000000000000000000000000000000000000600052601260045260246000fd5b7f4e487b7100000000000000000000000000000000000000000000000000000000600052603260045260246000fd5b7f4e487b7100000000000000000000000000000000000000000000000000000000600052604160045260246000fd5b600080fd5b600080fd5b600080fd5b600080fd5b600080fd5b600080fd5b600080fd5b6000601f19601f8301169050919050565b7f436f756e7465723a2064656372656d656e74206f766572666c6f770000000000600082015250565b7f73656e646572206973206e6f7420616c6c6f776564207769746820746869732060008201527f636f6c6c656374696f6e00000000000000000000000000000000000000000000602082015250565b7f5072696365206d757374206265206174206c65617374203130302041444d4300600082015250565b7f7072696365206d7573742062652073657420626967676572207468616e20313060008201527f302041444d430000000000000000000000000000000000000000000000000000602082015250565b7f75706461746564207072696365206d757374206265206e6f742073616d65207760008201527f697468206f6c6420707269636500000000000000000000000000000000000000602082015250565b7f546865206d696e74696e6720636f756e74206f766572666c6f777320746f746160008201527f6c20636f756e7420696e207468652063757272656e7420636f6c6c656374696f60208201527f6e20696400000000000000000000000000000000000000000000000000000000604082015250565b7f556e617574686f72697365642041636365737300000000000000000000000000600082015250565b7f62616c616e636520697320746f6f20736d616c6c2c20796f752063616e27742060008201527f70617920666f72206d696e74696e672e00000000000000000000000000000000602082015250565b7f5265656e7472616e637947756172643a207265656e7472616e742063616c6c00600082015250565b7f6974656d20636f756e74206f776e6564206279206f776e6572206973206f766560008201527f72666c6f77206c696d6974656420636f756e7400000000000000000000000000602082015250565b7f636f73742069732074686520736d616c6c6572207468616e20616c6c6f77656460008201527f20616d6f756e7400000000000000000000000000000000000000000000000000602082015250565b6135ca816130d7565b81146135d557600080fd5b50565b6135e1816130fb565b81146135ec57600080fd5b50565b6135f881613127565b811461360357600080fd5b5056fea26469706673582212204ac39a997ffece081460e4971c778e959cbbaa15ce36f5348dfb40e1b8c204fd64736f6c63430008050033",
  "linkReferences": {},
  "deployedLinkReferences": {}
}