{
  "_format": "hh-sol-artifact-1",
  "contractName": "NFT",
  "sourceName": "contracts/NFT.sol",
  "abi": [
    {
      "inputs": [
        {
          "internalType": "address",
          "name": "marketplaceAddress",
          "type": "address"
        }
      ],
      "stateMutability": "nonpayable",
      "type": "constructor"
    },
    {
      "anonymous": false,
      "inputs": [
        {
          "indexed": true,
          "internalType": "address",
          "name": "owner",
          "type": "address"
        },
        {
          "indexed": true,
          "internalType": "address",
          "name": "approved",
          "type": "address"
        },
        {
          "indexed": true,
          "internalType": "uint256",
          "name": "tokenId",
          "type": "uint256"
        }
      ],
      "name": "Approval",
      "type": "event"
    },
    {
      "anonymous": false,
      "inputs": [
        {
          "indexed": true,
          "internalType": "address",
          "name": "owner",
          "type": "address"
        },
        {
          "indexed": true,
          "internalType": "address",
          "name": "operator",
          "type": "address"
        },
        {
          "indexed": false,
          "internalType": "bool",
          "name": "approved",
          "type": "bool"
        }
      ],
      "name": "ApprovalForAll",
      "type": "event"
    },
    {
      "anonymous": false,
      "inputs": [
        {
          "indexed": true,
          "internalType": "uint256",
          "name": "id",
          "type": "uint256"
        },
        {
          "indexed": false,
          "internalType": "string",
          "name": "name",
          "type": "string"
        },
        {
          "indexed": false,
          "internalType": "string",
          "name": "collectionUri",
          "type": "string"
        },
        {
          "indexed": false,
          "internalType": "uint256",
          "name": "totalMints",
          "type": "uint256"
        },
        {
          "indexed": false,
          "internalType": "uint256",
          "name": "limits",
          "type": "uint256"
        },
        {
          "indexed": false,
          "internalType": "uint256",
          "name": "price",
          "type": "uint256"
        }
      ],
      "name": "CollectionCreated",
      "type": "event"
    },
    {
      "anonymous": false,
      "inputs": [
        {
          "indexed": false,
          "internalType": "uint256",
          "name": "_mintingPrice",
          "type": "uint256"
        }
      ],
      "name": "MintingPriceChanged",
      "type": "event"
    },
    {
      "anonymous": false,
      "inputs": [
        {
          "indexed": true,
          "internalType": "address",
          "name": "from",
          "type": "address"
        },
        {
          "indexed": true,
          "internalType": "address",
          "name": "to",
          "type": "address"
        },
        {
          "indexed": true,
          "internalType": "uint256",
          "name": "tokenId",
          "type": "uint256"
        }
      ],
      "name": "Transfer",
      "type": "event"
    },
    {
      "inputs": [
        {
          "internalType": "string",
          "name": "collectionName",
          "type": "string"
        },
        {
          "internalType": "string",
          "name": "uri",
          "type": "string"
        },
        {
          "internalType": "uint256",
          "name": "totalMints",
          "type": "uint256"
        },
        {
          "internalType": "uint256",
          "name": "limits",
          "type": "uint256"
        },
        {
          "internalType": "uint256",
          "name": "price",
          "type": "uint256"
        }
      ],
      "name": "addCollection",
      "outputs": [],
      "stateMutability": "nonpayable",
      "type": "function"
    },
    {
      "inputs": [
        {
          "internalType": "address",
          "name": "to",
          "type": "address"
        },
        {
          "internalType": "uint256",
          "name": "tokenId",
          "type": "uint256"
        }
      ],
      "name": "approve",
      "outputs": [],
      "stateMutability": "nonpayable",
      "type": "function"
    },
    {
      "inputs": [
        {
          "internalType": "address",
          "name": "owner",
          "type": "address"
        }
      ],
      "name": "balanceOf",
      "outputs": [
        {
          "internalType": "uint256",
          "name": "",
          "type": "uint256"
        }
      ],
      "stateMutability": "view",
      "type": "function"
    },
    {
      "inputs": [],
      "name": "fetchCollections",
      "outputs": [
        {
          "components": [
            {
              "internalType": "uint256",
              "name": "id",
              "type": "uint256"
            },
            {
              "internalType": "string",
              "name": "name",
              "type": "string"
            },
            {
              "internalType": "string",
              "name": "collectionUri",
              "type": "string"
            },
            {
              "internalType": "uint256",
              "name": "totalMints",
              "type": "uint256"
            },
            {
              "internalType": "uint256",
              "name": "limits",
              "type": "uint256"
            },
            {
              "internalType": "uint256",
              "name": "price",
              "type": "uint256"
            }
          ],
          "internalType": "struct NFT.CollectionInfo[]",
          "name": "",
          "type": "tuple[]"
        }
      ],
      "stateMutability": "view",
      "type": "function"
    },
    {
      "inputs": [
        {
          "internalType": "uint256",
          "name": "_collectionId",
          "type": "uint256"
        }
      ],
      "name": "fetchMyNFTS",
      "outputs": [
        {
          "components": [
            {
              "internalType": "uint256",
              "name": "collectionId",
              "type": "uint256"
            },
            {
              "internalType": "uint256",
              "name": "tokenId",
              "type": "uint256"
            },
            {
              "internalType": "address",
              "name": "tokenOwner",
              "type": "address"
            },
            {
              "internalType": "bool",
              "name": "sold",
              "type": "bool"
            }
          ],
          "internalType": "struct NFT.TokenInfo[]",
          "name": "",
          "type": "tuple[]"
        }
      ],
      "stateMutability": "view",
      "type": "function"
    },
    {
      "inputs": [
        {
          "internalType": "uint256",
          "name": "tokenId",
          "type": "uint256"
        }
      ],
      "name": "getApproved",
      "outputs": [
        {
          "internalType": "address",
          "name": "",
          "type": "address"
        }
      ],
      "stateMutability": "view",
      "type": "function"
    },
    {
      "inputs": [
        {
          "internalType": "uint256",
          "name": "collectionId",
          "type": "uint256"
        }
      ],
      "name": "getCollectionInfoByCid",
      "outputs": [
        {
          "components": [
            {
              "internalType": "uint256",
              "name": "id",
              "type": "uint256"
            },
            {
              "internalType": "string",
              "name": "name",
              "type": "string"
            },
            {
              "internalType": "string",
              "name": "collectionUri",
              "type": "string"
            },
            {
              "internalType": "uint256",
              "name": "totalMints",
              "type": "uint256"
            },
            {
              "internalType": "uint256",
              "name": "limits",
              "type": "uint256"
            },
            {
              "internalType": "uint256",
              "name": "price",
              "type": "uint256"
            }
          ],
          "internalType": "struct NFT.CollectionInfo",
          "name": "",
          "type": "tuple"
        }
      ],
      "stateMutability": "view",
      "type": "function"
    },
    {
      "inputs": [
        {
          "internalType": "uint256",
          "name": "tokenId",
          "type": "uint256"
        }
      ],
      "name": "getCollectionInfoByTid",
      "outputs": [
        {
          "components": [
            {
              "internalType": "uint256",
              "name": "id",
              "type": "uint256"
            },
            {
              "internalType": "string",
              "name": "name",
              "type": "string"
            },
            {
              "internalType": "string",
              "name": "collectionUri",
              "type": "string"
            },
            {
              "internalType": "uint256",
              "name": "totalMints",
              "type": "uint256"
            },
            {
              "internalType": "uint256",
              "name": "limits",
              "type": "uint256"
            },
            {
              "internalType": "uint256",
              "name": "price",
              "type": "uint256"
            }
          ],
          "internalType": "struct NFT.CollectionInfo",
          "name": "",
          "type": "tuple"
        }
      ],
      "stateMutability": "view",
      "type": "function"
    },
    {
      "inputs": [],
      "name": "getCurrentCollectionId",
      "outputs": [
        {
          "internalType": "uint256",
          "name": "",
          "type": "uint256"
        }
      ],
      "stateMutability": "view",
      "type": "function"
    },
    {
      "inputs": [
        {
          "internalType": "uint256",
          "name": "collectionId",
          "type": "uint256"
        }
      ],
      "name": "getCurrentCountForCollection",
      "outputs": [
        {
          "internalType": "uint256",
          "name": "",
          "type": "uint256"
        }
      ],
      "stateMutability": "view",
      "type": "function"
    },
    {
      "inputs": [],
      "name": "getCurrentTokenId",
      "outputs": [
        {
          "internalType": "uint256",
          "name": "",
          "type": "uint256"
        }
      ],
      "stateMutability": "view",
      "type": "function"
    },
    {
      "inputs": [],
      "name": "getMintingPrice",
      "outputs": [
        {
          "internalType": "uint256",
          "name": "",
          "type": "uint256"
        }
      ],
      "stateMutability": "view",
      "type": "function"
    },
    {
      "inputs": [],
      "name": "getOwner",
      "outputs": [
        {
          "internalType": "address",
          "name": "",
          "type": "address"
        }
      ],
      "stateMutability": "view",
      "type": "function"
    },
    {
      "inputs": [],
      "name": "getPayableCoin",
      "outputs": [
        {
          "internalType": "address",
          "name": "",
          "type": "address"
        }
      ],
      "stateMutability": "view",
      "type": "function"
    },
    {
      "inputs": [
        {
          "internalType": "uint256",
          "name": "tokenId",
          "type": "uint256"
        }
      ],
      "name": "getURI",
      "outputs": [
        {
          "internalType": "string",
          "name": "",
          "type": "string"
        }
      ],
      "stateMutability": "view",
      "type": "function"
    },
    {
      "inputs": [
        {
          "internalType": "address",
          "name": "owner",
          "type": "address"
        },
        {
          "internalType": "address",
          "name": "operator",
          "type": "address"
        }
      ],
      "name": "isApprovedForAll",
      "outputs": [
        {
          "internalType": "bool",
          "name": "",
          "type": "bool"
        }
      ],
      "stateMutability": "view",
      "type": "function"
    },
    {
      "inputs": [],
      "name": "m_addressPayCoin",
      "outputs": [
        {
          "internalType": "address",
          "name": "",
          "type": "address"
        }
      ],
      "stateMutability": "view",
      "type": "function"
    },
    {
      "inputs": [
        {
          "internalType": "uint256",
          "name": "collectionId",
          "type": "uint256"
        }
      ],
      "name": "mintToken",
      "outputs": [
        {
          "internalType": "uint256",
          "name": "",
          "type": "uint256"
        }
      ],
      "stateMutability": "nonpayable",
      "type": "function"
    },
    {
      "inputs": [],
      "name": "name",
      "outputs": [
        {
          "internalType": "string",
          "name": "",
          "type": "string"
        }
      ],
      "stateMutability": "view",
      "type": "function"
    },
    {
      "inputs": [
        {
          "internalType": "uint256",
          "name": "tokenId",
          "type": "uint256"
        }
      ],
      "name": "ownerOf",
      "outputs": [
        {
          "internalType": "address",
          "name": "",
          "type": "address"
        }
      ],
      "stateMutability": "view",
      "type": "function"
    },
    {
      "inputs": [
        {
          "internalType": "address",
          "name": "from",
          "type": "address"
        },
        {
          "internalType": "address",
          "name": "to",
          "type": "address"
        },
        {
          "internalType": "uint256",
          "name": "tokenId",
          "type": "uint256"
        }
      ],
      "name": "safeTransferFrom",
      "outputs": [],
      "stateMutability": "nonpayable",
      "type": "function"
    },
    {
      "inputs": [
        {
          "internalType": "address",
          "name": "from",
          "type": "address"
        },
        {
          "internalType": "address",
          "name": "to",
          "type": "address"
        },
        {
          "internalType": "uint256",
          "name": "tokenId",
          "type": "uint256"
        },
        {
          "internalType": "bytes",
          "name": "_data",
          "type": "bytes"
        }
      ],
      "name": "safeTransferFrom",
      "outputs": [],
      "stateMutability": "nonpayable",
      "type": "function"
    },
    {
      "inputs": [
        {
          "internalType": "address",
          "name": "operator",
          "type": "address"
        },
        {
          "internalType": "bool",
          "name": "approved",
          "type": "bool"
        }
      ],
      "name": "setApprovalForAll",
      "outputs": [],
      "stateMutability": "nonpayable",
      "type": "function"
    },
    {
      "inputs": [
        {
          "internalType": "uint256",
          "name": "mintingPrice",
          "type": "uint256"
        }
      ],
      "name": "setMintingPrice",
      "outputs": [],
      "stateMutability": "nonpayable",
      "type": "function"
    },
    {
      "inputs": [
        {
          "internalType": "uint256",
          "name": "tokenId",
          "type": "uint256"
        }
      ],
      "name": "setStatusForToken",
      "outputs": [],
      "stateMutability": "nonpayable",
      "type": "function"
    },
    {
      "inputs": [
        {
          "internalType": "uint256",
          "name": "tokenId",
          "type": "uint256"
        }
      ],
      "name": "statusForToken",
      "outputs": [
        {
          "internalType": "bool",
          "name": "",
          "type": "bool"
        }
      ],
      "stateMutability": "view",
      "type": "function"
    },
    {
      "inputs": [
        {
          "internalType": "bytes4",
          "name": "interfaceId",
          "type": "bytes4"
        }
      ],
      "name": "supportsInterface",
      "outputs": [
        {
          "internalType": "bool",
          "name": "",
          "type": "bool"
        }
      ],
      "stateMutability": "view",
      "type": "function"
    },
    {
      "inputs": [],
      "name": "symbol",
      "outputs": [
        {
          "internalType": "string",
          "name": "",
          "type": "string"
        }
      ],
      "stateMutability": "view",
      "type": "function"
    },
    {
      "inputs": [
        {
          "internalType": "uint256",
          "name": "tokenId",
          "type": "uint256"
        }
      ],
      "name": "tokenURI",
      "outputs": [
        {
          "internalType": "string",
          "name": "",
          "type": "string"
        }
      ],
      "stateMutability": "view",
      "type": "function"
    },
    {
      "inputs": [
        {
          "internalType": "address",
          "name": "from",
          "type": "address"
        },
        {
          "internalType": "address",
          "name": "to",
          "type": "address"
        },
        {
          "internalType": "uint256",
          "name": "tokenId",
          "type": "uint256"
        }
      ],
      "name": "transferFrom",
      "outputs": [],
      "stateMutability": "nonpayable",
      "type": "function"
    }
  ],
  "bytecode": "0x6080604052655af3107a4000600955738ccb7d516ccd62312b2d7753b1421ed3862ff80b600a60006101000a81548173ffffffffffffffffffffffffffffffffffffffff021916908373ffffffffffffffffffffffffffffffffffffffff1602179055503480156200007057600080fd5b5060405162004d6438038062004d64833981810160405281019062000096919062000286565b6040518060400160405280601181526020017f4164616d616e74204368617261637465720000000000000000000000000000008152506040518060400160405280600581526020017f41444d434300000000000000000000000000000000000000000000000000000081525081600090805190602001906200011a929190620001bf565b50806001908051906020019062000133929190620001bf565b50505033600c60006101000a81548173ffffffffffffffffffffffffffffffffffffffff021916908373ffffffffffffffffffffffffffffffffffffffff16021790555080600b60006101000a81548173ffffffffffffffffffffffffffffffffffffffff021916908373ffffffffffffffffffffffffffffffffffffffff1602179055505062000370565b828054620001cd90620002ec565b90600052602060002090601f016020900481019282620001f157600085556200023d565b82601f106200020c57805160ff19168380011785556200023d565b828001600101855582156200023d579182015b828111156200023c5782518255916020019190600101906200021f565b5b5090506200024c919062000250565b5090565b5b808211156200026b57600081600090555060010162000251565b5090565b600081519050620002808162000356565b92915050565b6000602082840312156200029f576200029e62000351565b5b6000620002af848285016200026f565b91505092915050565b6000620002c582620002cc565b9050919050565b600073ffffffffffffffffffffffffffffffffffffffff82169050919050565b600060028204905060018216806200030557607f821691505b602082108114156200031c576200031b62000322565b5b50919050565b7f4e487b7100000000000000000000000000000000000000000000000000000000600052602260045260246000fd5b600080fd5b6200036181620002b8565b81146200036d57600080fd5b50565b6149e480620003806000396000f3fe608060405234801561001057600080fd5b50600436106101da5760003560e01c806371e8069c11610104578063a6d7135a116100a2578063c87b56dd11610071578063c87b56dd146105a1578063d2ead4cb146105d1578063e985e9c5146105ef578063fa80f7ee1461061f576101da565b8063a6d7135a14610509578063b88d4fde14610539578063c43aecd114610555578063c634d03214610571576101da565b8063893d20e8116100de578063893d20e8146104935780638be39fe9146104b157806395d89b41146104cf578063a22cb465146104ed576101da565b806371e8069c1461043d57806377d24762146104595780638417b47f14610477576101da565b8063280aada71161017c578063561892361161014b578063561892361461038f5780636352211e146103ad57806366ef5639146103dd57806370a082311461040d576101da565b8063280aada7146102f55780632d8c97b414610313578063315b3f5f1461034357806342842e0e14610373576101da565b8063081812fc116101b8578063081812fc1461025d578063095ea7b31461028d5780631aa347dc146102a957806323b872dd146102d9576101da565b80630178327c146101df57806301ffc9a71461020f57806306fdde031461023f575b600080fd5b6101f960048036038101906101f49190613271565b61063d565b6040516102069190613aa6565b60405180910390f35b61022960048036038101906102249190613164565b610689565b6040516102369190613aa6565b60405180910390f35b61024761076b565b6040516102549190613ac1565b60405180910390f35b61027760048036038101906102729190613271565b6107fd565b604051610284919061399b565b60405180910390f35b6102a760048036038101906102a291906130f7565b610882565b005b6102c360048036038101906102be9190613271565b61099a565b6040516102d09190613ac1565b60405180910390f35b6102f360048036038101906102ee9190612fe1565b6109ac565b005b6102fd610a0c565b60405161030a919061399b565b60405180910390f35b61032d60048036038101906103289190613271565b610a36565b60405161033a9190613e26565b60405180910390f35b61035d60048036038101906103589190613271565b610a90565b60405161036a9190613a84565b60405180910390f35b61038d60048036038101906103889190612fe1565b610cc2565b005b610397610ce2565b6040516103a49190613e26565b60405180910390f35b6103c760048036038101906103c29190613271565b610cf3565b6040516103d4919061399b565b60405180910390f35b6103f760048036038101906103f29190613271565b610da5565b6040516104049190613e04565b60405180910390f35b61042760048036038101906104229190612f74565b610f37565b6040516104349190613e26565b60405180910390f35b61045760048036038101906104529190613271565b610fef565b005b610461611059565b60405161046e9190613e26565b60405180910390f35b610491600480360381019061048c9190613271565b611063565b005b61049b611143565b6040516104a8919061399b565b60405180910390f35b6104b961116d565b6040516104c69190613e26565b60405180910390f35b6104d761117e565b6040516104e49190613ac1565b60405180910390f35b610507600480360381019061050291906130b7565b611210565b005b610523600480360381019061051e9190613271565b611391565b6040516105309190613e04565b60405180910390f35b610553600480360381019061054e9190613034565b61150a565b005b61056f600480360381019061056a91906131be565b61156c565b005b61058b60048036038101906105869190613271565b61171f565b6040516105989190613e26565b60405180910390f35b6105bb60048036038101906105b69190613271565b611d55565b6040516105c89190613ac1565b60405180910390f35b6105d9611ea7565b6040516105e69190613a62565b60405180910390f35b61060960048036038101906106049190612fa1565b6120cd565b6040516106169190613aa6565b60405180910390f35b610627612161565b604051610634919061399b565b60405180910390f35b600080600090506000600190505b6106556007612187565b811161067f578381141561066c576001915061067f565b8080610677906141bc565b91505061064b565b5080915050919050565b60007f80ac58cd000000000000000000000000000000000000000000000000000000007bffffffffffffffffffffffffffffffffffffffffffffffffffffffff1916827bffffffffffffffffffffffffffffffffffffffffffffffffffffffff1916148061075457507f5b5e139f000000000000000000000000000000000000000000000000000000007bffffffffffffffffffffffffffffffffffffffffffffffffffffffff1916827bffffffffffffffffffffffffffffffffffffffffffffffffffffffff1916145b80610764575061076382612195565b5b9050919050565b60606000805461077a90614159565b80601f01602080910402602001604051908101604052809291908181526020018280546107a690614159565b80156107f35780601f106107c8576101008083540402835291602001916107f3565b820191906000526020600020905b8154815290600101906020018083116107d657829003601f168201915b5050505050905090565b6000610808826121ff565b610847576040517f08c379a000000000000000000000000000000000000000000000000000000000815260040161083e90613d24565b60405180910390fd5b6004600083815260200190815260200160002060009054906101000a900473ffffffffffffffffffffffffffffffffffffffff169050919050565b600061088d82610cf3565b90508073ffffffffffffffffffffffffffffffffffffffff168373ffffffffffffffffffffffffffffffffffffffff1614156108fe576040517f08c379a00000000000000000000000000000000000000000000000000000000081526004016108f590613da4565b60405180910390fd5b8073ffffffffffffffffffffffffffffffffffffffff1661091d61226b565b73ffffffffffffffffffffffffffffffffffffffff16148061094c575061094b8161094661226b565b6120cd565b5b61098b576040517f08c379a000000000000000000000000000000000000000000000000000000000815260040161098290613c64565b60405180910390fd5b6109958383612273565b505050565b60606109a582611d55565b9050919050565b6109bd6109b761226b565b8261232c565b6109fc576040517f08c379a00000000000000000000000000000000000000000000000000000000081526004016109f390613dc4565b60405180910390fd5b610a0783838361240a565b505050565b6000600a60009054906101000a900473ffffffffffffffffffffffffffffffffffffffff16905090565b6000601060003373ffffffffffffffffffffffffffffffffffffffff1673ffffffffffffffffffffffffffffffffffffffff1681526020019081526020016000206000838152602001908152602001600020549050919050565b6060600080600190505b610aa46007612187565b8111610b1757600f600082815260200190815260200160002060020160149054906101000a900460ff16158015610af0575083600f600083815260200190815260200160002060000154145b15610b04578180610b00906141bc565b9250505b8080610b0f906141bc565b915050610a9a565b506000808267ffffffffffffffff811115610b3557610b346142f2565b5b604051908082528060200260200182016040528015610b6e57816020015b610b5b612ce8565b815260200190600190039081610b535790505b5090506000600190505b610b826007612187565b8111610cb657600f600082815260200190815260200160002060020160149054906101000a900460ff16158015610bce575085600f600083815260200190815260200160002060000154145b15610ca357600f600082815260200190815260200160002060405180608001604052908160008201548152602001600182015481526020016002820160009054906101000a900473ffffffffffffffffffffffffffffffffffffffff1673ffffffffffffffffffffffffffffffffffffffff1673ffffffffffffffffffffffffffffffffffffffff1681526020016002820160149054906101000a900460ff161515151581525050828481518110610c8957610c886142c3565b5b60200260200101819052508280610c9f906141bc565b9350505b8080610cae906141bc565b915050610b78565b50809350505050919050565b610cdd8383836040518060200160405280600081525061150a565b505050565b6000610cee6007612187565b905090565b6000806002600084815260200190815260200160002060009054906101000a900473ffffffffffffffffffffffffffffffffffffffff169050600073ffffffffffffffffffffffffffffffffffffffff168173ffffffffffffffffffffffffffffffffffffffff161415610d9c576040517f08c379a0000000000000000000000000000000000000000000000000000000008152600401610d9390613ca4565b60405180910390fd5b80915050919050565b610dad612d28565b6000600e6000848152602001908152602001600020549050600d60008281526020019081526020016000206040518060c001604052908160008201548152602001600182018054610dfd90614159565b80601f0160208091040260200160405190810160405280929190818152602001828054610e2990614159565b8015610e765780601f10610e4b57610100808354040283529160200191610e76565b820191906000526020600020905b815481529060010190602001808311610e5957829003601f168201915b50505050508152602001600282018054610e8f90614159565b80601f0160208091040260200160405190810160405280929190818152602001828054610ebb90614159565b8015610f085780601f10610edd57610100808354040283529160200191610f08565b820191906000526020600020905b815481529060010190602001808311610eeb57829003601f168201915b505050505081526020016003820154815260200160048201548152602001600582015481525050915050919050565b60008073ffffffffffffffffffffffffffffffffffffffff168273ffffffffffffffffffffffffffffffffffffffff161415610fa8576040517f08c379a0000000000000000000000000000000000000000000000000000000008152600401610f9f90613c84565b60405180910390fd5b600360008373ffffffffffffffffffffffffffffffffffffffff1673ffffffffffffffffffffffffffffffffffffffff168152602001908152602001600020549050919050565b6000600190505b6110006007612187565b81116110555781811415611042576001600f600083815260200190815260200160002060020160146101000a81548160ff021916908315150217905550611055565b808061104d906141bc565b915050610ff6565b5050565b6000600954905090565b600c60009054906101000a900473ffffffffffffffffffffffffffffffffffffffff1673ffffffffffffffffffffffffffffffffffffffff163373ffffffffffffffffffffffffffffffffffffffff16146110f3576040517f08c379a00000000000000000000000000000000000000000000000000000000081526004016110ea90613d84565b60405180910390fd5b633b9aca00816111039190614015565b6009819055507fc1964616a7065e86f052b90db1a318ac253fc8e701b705f4eca06c0af34047e5816040516111389190613e26565b60405180910390a150565b6000600c60009054906101000a900473ffffffffffffffffffffffffffffffffffffffff16905090565b60006111796008612187565b905090565b60606001805461118d90614159565b80601f01602080910402602001604051908101604052809291908181526020018280546111b990614159565b80156112065780601f106111db57610100808354040283529160200191611206565b820191906000526020600020905b8154815290600101906020018083116111e957829003601f168201915b5050505050905090565b61121861226b565b73ffffffffffffffffffffffffffffffffffffffff168273ffffffffffffffffffffffffffffffffffffffff161415611286576040517f08c379a000000000000000000000000000000000000000000000000000000000815260040161127d90613c04565b60405180910390fd5b806005600061129361226b565b73ffffffffffffffffffffffffffffffffffffffff1673ffffffffffffffffffffffffffffffffffffffff16815260200190815260200160002060008473ffffffffffffffffffffffffffffffffffffffff1673ffffffffffffffffffffffffffffffffffffffff16815260200190815260200160002060006101000a81548160ff0219169083151502179055508173ffffffffffffffffffffffffffffffffffffffff1661134061226b565b73ffffffffffffffffffffffffffffffffffffffff167f17307eab39ab6107e8899845ad3d59bd9653f200f220920489ca2b5937696c31836040516113859190613aa6565b60405180910390a35050565b611399612d28565b600d60008381526020019081526020016000206040518060c0016040529081600082015481526020016001820180546113d190614159565b80601f01602080910402602001604051908101604052809291908181526020018280546113fd90614159565b801561144a5780601f1061141f5761010080835404028352916020019161144a565b820191906000526020600020905b81548152906001019060200180831161142d57829003601f168201915b5050505050815260200160028201805461146390614159565b80601f016020809104026020016040519081016040528092919081815260200182805461148f90614159565b80156114dc5780601f106114b1576101008083540402835291602001916114dc565b820191906000526020600020905b8154815290600101906020018083116114bf57829003601f168201915b5050505050815260200160038201548152602001600482015481526020016005820154815250509050919050565b61151b61151561226b565b8361232c565b61155a576040517f08c379a000000000000000000000000000000000000000000000000000000000815260040161155190613dc4565b60405180910390fd5b61156684848484612666565b50505050565b600c60009054906101000a900473ffffffffffffffffffffffffffffffffffffffff1673ffffffffffffffffffffffffffffffffffffffff163373ffffffffffffffffffffffffffffffffffffffff16146115fc576040517f08c379a00000000000000000000000000000000000000000000000000000000081526004016115f390613d84565b60405180910390fd5b61160660086126c2565b60006116126008612187565b90506040518060c00160405280828152602001878152602001868152602001858152602001848152602001633b9aca008461164d9190614015565b815250600d6000838152602001908152602001600020600082015181600001556020820151816001019080519060200190611689929190612d5e565b5060408201518160020190805190602001906116a6929190612d5e565b50606082015181600301556080820151816004015560a08201518160050155905050807feada35d938c270c25853d8dabedd0244753eb3db592834c69dd585067b028d3f87878787633b9aca00886116fe9190614015565b60405161170f959493929190613ae3565b60405180910390a2505050505050565b600080600a60009054906101000a900473ffffffffffffffffffffffffffffffffffffffff1690506000600d600085815260200190815260200160002060050154905060008273ffffffffffffffffffffffffffffffffffffffff1663dd62ed3e33306040518363ffffffff1660e01b815260040161179f9291906139b6565b60206040518083038186803b1580156117b757600080fd5b505afa1580156117cb573d6000803e3d6000fd5b505050506040513d601f19601f820116820180604052508101906117ef919061329e565b905081811015611834576040517f08c379a000000000000000000000000000000000000000000000000000000000815260040161182b90613b44565b60405180910390fd5b818373ffffffffffffffffffffffffffffffffffffffff166370a08231336040518263ffffffff1660e01b815260040161186e919061399b565b60206040518083038186803b15801561188657600080fd5b505afa15801561189a573d6000803e3d6000fd5b505050506040513d601f19601f820116820180604052508101906118be919061329e565b10156118ff576040517f08c379a00000000000000000000000000000000000000000000000000000000081526004016118f690613de4565b60405180910390fd5b6119096008612187565b85111561194b576040517f08c379a000000000000000000000000000000000000000000000000000000000815260040161194290613bc4565b60405180910390fd5b600d60008681526020019081526020016000206003015461196c6007612187565b106119ac576040517f08c379a00000000000000000000000000000000000000000000000000000000081526004016119a390613b64565b60405180910390fd5b600d600086815260200190815260200160002060040154601060003373ffffffffffffffffffffffffffffffffffffffff1673ffffffffffffffffffffffffffffffffffffffff1681526020019081526020016000206000878152602001908152602001600020541115611a55576040517f08c379a0000000000000000000000000000000000000000000000000000000008152600401611a4c90613c24565b60405180910390fd5b611a5f60076126c2565b6000611a6b6007612187565b9050611a7733826126d8565b611b1f81600d60008981526020019081526020016000206002018054611a9c90614159565b80601f0160208091040260200160405190810160405280929190818152602001828054611ac890614159565b8015611b155780601f10611aea57610100808354040283529160200191611b15565b820191906000526020600020905b815481529060010190602001808311611af857829003601f168201915b50505050506128a6565b611b4c600b60009054906101000a900473ffffffffffffffffffffffffffffffffffffffff166001611210565b60405180608001604052808781526020018281526020013373ffffffffffffffffffffffffffffffffffffffff16815260200160001515815250600f6000838152602001908152602001600020600082015181600001556020820151816001015560408201518160020160006101000a81548173ffffffffffffffffffffffffffffffffffffffff021916908373ffffffffffffffffffffffffffffffffffffffff16021790555060608201518160020160146101000a81548160ff02191690831515021790555090505085600e6000838152602001908152602001600020819055506001601060003373ffffffffffffffffffffffffffffffffffffffff1673ffffffffffffffffffffffffffffffffffffffff16815260200190815260200160002060008881526020019081526020016000206000828254611c909190613f8e565b925050819055508373ffffffffffffffffffffffffffffffffffffffff166323b872dd33600c60009054906101000a900473ffffffffffffffffffffffffffffffffffffffff16866040518463ffffffff1660e01b8152600401611cf6939291906139df565b602060405180830381600087803b158015611d1057600080fd5b505af1158015611d24573d6000803e3d6000fd5b505050506040513d601f19601f82011682018060405250810190611d489190613137565b5080945050505050919050565b6060611d60826121ff565b611d9f576040517f08c379a0000000000000000000000000000000000000000000000000000000008152600401611d9690613d04565b60405180910390fd5b6000600660008481526020019081526020016000208054611dbf90614159565b80601f0160208091040260200160405190810160405280929190818152602001828054611deb90614159565b8015611e385780601f10611e0d57610100808354040283529160200191611e38565b820191906000526020600020905b815481529060010190602001808311611e1b57829003601f168201915b505050505090506000611e4961291a565b9050600081511415611e5f578192505050611ea2565b600082511115611e94578082604051602001611e7c929190613977565b60405160208183030381529060405292505050611ea2565b611e9d84612931565b925050505b919050565b60606000611eb56008612187565b905060008167ffffffffffffffff811115611ed357611ed26142f2565b5b604051908082528060200260200182016040528015611f0c57816020015b611ef9612d28565b815260200190600190039081611ef15790505b5090506000600190505b8281116120c457600d60008281526020019081526020016000206040518060c001604052908160008201548152602001600182018054611f5590614159565b80601f0160208091040260200160405190810160405280929190818152602001828054611f8190614159565b8015611fce5780601f10611fa357610100808354040283529160200191611fce565b820191906000526020600020905b815481529060010190602001808311611fb157829003601f168201915b50505050508152602001600282018054611fe790614159565b80601f016020809104026020016040519081016040528092919081815260200182805461201390614159565b80156120605780601f1061203557610100808354040283529160200191612060565b820191906000526020600020905b81548152906001019060200180831161204357829003601f168201915b50505050508152602001600382015481526020016004820154815260200160058201548152505082600183612095919061406f565b815181106120a6576120a56142c3565b5b602002602001018190525080806120bc906141bc565b915050611f16565b50809250505090565b6000600560008473ffffffffffffffffffffffffffffffffffffffff1673ffffffffffffffffffffffffffffffffffffffff16815260200190815260200160002060008373ffffffffffffffffffffffffffffffffffffffff1673ffffffffffffffffffffffffffffffffffffffff16815260200190815260200160002060009054906101000a900460ff16905092915050565b600a60009054906101000a900473ffffffffffffffffffffffffffffffffffffffff1681565b600081600001549050919050565b60007f01ffc9a7000000000000000000000000000000000000000000000000000000007bffffffffffffffffffffffffffffffffffffffffffffffffffffffff1916827bffffffffffffffffffffffffffffffffffffffffffffffffffffffff1916149050919050565b60008073ffffffffffffffffffffffffffffffffffffffff166002600084815260200190815260200160002060009054906101000a900473ffffffffffffffffffffffffffffffffffffffff1673ffffffffffffffffffffffffffffffffffffffff1614159050919050565b600033905090565b816004600083815260200190815260200160002060006101000a81548173ffffffffffffffffffffffffffffffffffffffff021916908373ffffffffffffffffffffffffffffffffffffffff160217905550808273ffffffffffffffffffffffffffffffffffffffff166122e683610cf3565b73ffffffffffffffffffffffffffffffffffffffff167f8c5be1e5ebec7d5bd14f71427d1e84f3dd0314c0f7b2291e5b200ac8c7c3b92560405160405180910390a45050565b6000612337826121ff565b612376576040517f08c379a000000000000000000000000000000000000000000000000000000000815260040161236d90613c44565b60405180910390fd5b600061238183610cf3565b90508073ffffffffffffffffffffffffffffffffffffffff168473ffffffffffffffffffffffffffffffffffffffff1614806123f057508373ffffffffffffffffffffffffffffffffffffffff166123d8846107fd565b73ffffffffffffffffffffffffffffffffffffffff16145b80612401575061240081856120cd565b5b91505092915050565b8273ffffffffffffffffffffffffffffffffffffffff1661242a82610cf3565b73ffffffffffffffffffffffffffffffffffffffff1614612480576040517f08c379a000000000000000000000000000000000000000000000000000000000815260040161247790613d44565b60405180910390fd5b600073ffffffffffffffffffffffffffffffffffffffff168273ffffffffffffffffffffffffffffffffffffffff1614156124f0576040517f08c379a00000000000000000000000000000000000000000000000000000000081526004016124e790613be4565b60405180910390fd5b6124fb8383836129d8565b612506600082612273565b6001600360008573ffffffffffffffffffffffffffffffffffffffff1673ffffffffffffffffffffffffffffffffffffffff1681526020019081526020016000206000828254612556919061406f565b925050819055506001600360008473ffffffffffffffffffffffffffffffffffffffff1673ffffffffffffffffffffffffffffffffffffffff16815260200190815260200160002060008282546125ad9190613f8e565b92505081905550816002600083815260200190815260200160002060006101000a81548173ffffffffffffffffffffffffffffffffffffffff021916908373ffffffffffffffffffffffffffffffffffffffff160217905550808273ffffffffffffffffffffffffffffffffffffffff168473ffffffffffffffffffffffffffffffffffffffff167fddf252ad1be2c89b69c2b068fc378daa952ba7f163c4a11628f55a4df523b3ef60405160405180910390a4505050565b61267184848461240a565b61267d848484846129dd565b6126bc576040517f08c379a00000000000000000000000000000000000000000000000000000000081526004016126b390613b84565b60405180910390fd5b50505050565b6001816000016000828254019250508190555050565b600073ffffffffffffffffffffffffffffffffffffffff168273ffffffffffffffffffffffffffffffffffffffff161415612748576040517f08c379a000000000000000000000000000000000000000000000000000000000815260040161273f90613ce4565b60405180910390fd5b612751816121ff565b15612791576040517f08c379a000000000000000000000000000000000000000000000000000000000815260040161278890613ba4565b60405180910390fd5b61279d600083836129d8565b6001600360008473ffffffffffffffffffffffffffffffffffffffff1673ffffffffffffffffffffffffffffffffffffffff16815260200190815260200160002060008282546127ed9190613f8e565b92505081905550816002600083815260200190815260200160002060006101000a81548173ffffffffffffffffffffffffffffffffffffffff021916908373ffffffffffffffffffffffffffffffffffffffff160217905550808273ffffffffffffffffffffffffffffffffffffffff16600073ffffffffffffffffffffffffffffffffffffffff167fddf252ad1be2c89b69c2b068fc378daa952ba7f163c4a11628f55a4df523b3ef60405160405180910390a45050565b6128af826121ff565b6128ee576040517f08c379a00000000000000000000000000000000000000000000000000000000081526004016128e590613cc4565b60405180910390fd5b80600660008481526020019081526020016000209080519060200190612915929190612d5e565b505050565b606060405180602001604052806000815250905090565b606061293c826121ff565b61297b576040517f08c379a000000000000000000000000000000000000000000000000000000000815260040161297290613d64565b60405180910390fd5b600061298561291a565b905060008151116129a557604051806020016040528060008152506129d0565b806129af84612b74565b6040516020016129c0929190613977565b6040516020818303038152906040525b915050919050565b505050565b60006129fe8473ffffffffffffffffffffffffffffffffffffffff16612cd5565b15612b67578373ffffffffffffffffffffffffffffffffffffffff1663150b7a02612a2761226b565b8786866040518563ffffffff1660e01b8152600401612a499493929190613a16565b602060405180830381600087803b158015612a6357600080fd5b505af1925050508015612a9457506040513d601f19601f82011682018060405250810190612a919190613191565b60015b612b17573d8060008114612ac4576040519150601f19603f3d011682016040523d82523d6000602084013e612ac9565b606091505b50600081511415612b0f576040517f08c379a0000000000000000000000000000000000000000000000000000000008152600401612b0690613b84565b60405180910390fd5b805181602001fd5b63150b7a0260e01b7bffffffffffffffffffffffffffffffffffffffffffffffffffffffff1916817bffffffffffffffffffffffffffffffffffffffffffffffffffffffff191614915050612b6c565b600190505b949350505050565b60606000821415612bbc576040518060400160405280600181526020017f30000000000000000000000000000000000000000000000000000000000000008152509050612cd0565b600082905060005b60008214612bee578080612bd7906141bc565b915050600a82612be79190613fe4565b9150612bc4565b60008167ffffffffffffffff811115612c0a57612c096142f2565b5b6040519080825280601f01601f191660200182016040528015612c3c5781602001600182028036833780820191505090505b5090505b60008514612cc957600182612c55919061406f565b9150600a85612c649190614205565b6030612c709190613f8e565b60f81b818381518110612c8657612c856142c3565b5b60200101907effffffffffffffffffffffffffffffffffffffffffffffffffffffffffffff1916908160001a905350600a85612cc29190613fe4565b9450612c40565b8093505050505b919050565b600080823b905060008111915050919050565b60405180608001604052806000815260200160008152602001600073ffffffffffffffffffffffffffffffffffffffff1681526020016000151581525090565b6040518060c001604052806000815260200160608152602001606081526020016000815260200160008152602001600081525090565b828054612d6a90614159565b90600052602060002090601f016020900481019282612d8c5760008555612dd3565b82601f10612da557805160ff1916838001178555612dd3565b82800160010185558215612dd3579182015b82811115612dd2578251825591602001919060010190612db7565b5b509050612de09190612de4565b5090565b5b80821115612dfd576000816000905550600101612de5565b5090565b6000612e14612e0f84613e66565b613e41565b905082815260208101848484011115612e3057612e2f614326565b5b612e3b848285614117565b509392505050565b6000612e56612e5184613e97565b613e41565b905082815260208101848484011115612e7257612e71614326565b5b612e7d848285614117565b509392505050565b600081359050612e9481614952565b92915050565b600081359050612ea981614969565b92915050565b600081519050612ebe81614969565b92915050565b600081359050612ed381614980565b92915050565b600081519050612ee881614980565b92915050565b600082601f830112612f0357612f02614321565b5b8135612f13848260208601612e01565b91505092915050565b600082601f830112612f3157612f30614321565b5b8135612f41848260208601612e43565b91505092915050565b600081359050612f5981614997565b92915050565b600081519050612f6e81614997565b92915050565b600060208284031215612f8a57612f89614330565b5b6000612f9884828501612e85565b91505092915050565b60008060408385031215612fb857612fb7614330565b5b6000612fc685828601612e85565b9250506020612fd785828601612e85565b9150509250929050565b600080600060608486031215612ffa57612ff9614330565b5b600061300886828701612e85565b935050602061301986828701612e85565b925050604061302a86828701612f4a565b9150509250925092565b6000806000806080858703121561304e5761304d614330565b5b600061305c87828801612e85565b945050602061306d87828801612e85565b935050604061307e87828801612f4a565b925050606085013567ffffffffffffffff81111561309f5761309e61432b565b5b6130ab87828801612eee565b91505092959194509250565b600080604083850312156130ce576130cd614330565b5b60006130dc85828601612e85565b92505060206130ed85828601612e9a565b9150509250929050565b6000806040838503121561310e5761310d614330565b5b600061311c85828601612e85565b925050602061312d85828601612f4a565b9150509250929050565b60006020828403121561314d5761314c614330565b5b600061315b84828501612eaf565b91505092915050565b60006020828403121561317a57613179614330565b5b600061318884828501612ec4565b91505092915050565b6000602082840312156131a7576131a6614330565b5b60006131b584828501612ed9565b91505092915050565b600080600080600060a086880312156131da576131d9614330565b5b600086013567ffffffffffffffff8111156131f8576131f761432b565b5b61320488828901612f1c565b955050602086013567ffffffffffffffff8111156132255761322461432b565b5b61323188828901612f1c565b945050604061324288828901612f4a565b935050606061325388828901612f4a565b925050608061326488828901612f4a565b9150509295509295909350565b60006020828403121561328757613286614330565b5b600061329584828501612f4a565b91505092915050565b6000602082840312156132b4576132b3614330565b5b60006132c284828501612f5f565b91505092915050565b60006132d783836137e4565b905092915050565b60006132eb8383613904565b60808301905092915050565b613300816140a3565b82525050565b61330f816140a3565b82525050565b600061332082613ee8565b61332a8185613f2e565b93508360208202850161333c85613ec8565b8060005b85811015613378578484038952815161335985826132cb565b945061336483613f14565b925060208a01995050600181019050613340565b50829750879550505050505092915050565b600061339582613ef3565b61339f8185613f3f565b93506133aa83613ed8565b8060005b838110156133db5781516133c288826132df565b97506133cd83613f21565b9250506001810190506133ae565b5085935050505092915050565b6133f1816140b5565b82525050565b613400816140b5565b82525050565b600061341182613efe565b61341b8185613f50565b935061342b818560208601614126565b61343481614335565b840191505092915050565b600061344a82613f09565b6134548185613f61565b9350613464818560208601614126565b61346d81614335565b840191505092915050565b600061348382613f09565b61348d8185613f72565b935061349d818560208601614126565b6134a681614335565b840191505092915050565b60006134bc82613f09565b6134c68185613f83565b93506134d6818560208601614126565b80840191505092915050565b60006134ef603083613f72565b91506134fa82614346565b604082019050919050565b6000613512603483613f72565b915061351d82614395565b604082019050919050565b6000613535603283613f72565b9150613540826143e4565b604082019050919050565b6000613558601c83613f72565b915061356382614433565b602082019050919050565b600061357b601c83613f72565b91506135868261445c565b602082019050919050565b600061359e602483613f72565b91506135a982614485565b604082019050919050565b60006135c1601983613f72565b91506135cc826144d4565b602082019050919050565b60006135e4602783613f72565b91506135ef826144fd565b604082019050919050565b6000613607602c83613f72565b91506136128261454c565b604082019050919050565b600061362a603883613f72565b91506136358261459b565b604082019050919050565b600061364d602a83613f72565b9150613658826145ea565b604082019050919050565b6000613670602983613f72565b915061367b82614639565b604082019050919050565b6000613693602e83613f72565b915061369e82614688565b604082019050919050565b60006136b6602083613f72565b91506136c1826146d7565b602082019050919050565b60006136d9603183613f72565b91506136e482614700565b604082019050919050565b60006136fc602c83613f72565b91506137078261474f565b604082019050919050565b600061371f602983613f72565b915061372a8261479e565b604082019050919050565b6000613742602f83613f72565b915061374d826147ed565b604082019050919050565b6000613765601383613f72565b91506137708261483c565b602082019050919050565b6000613788602183613f72565b915061379382614865565b604082019050919050565b60006137ab603183613f72565b91506137b6826148b4565b604082019050919050565b60006137ce603083613f72565b91506137d982614903565b604082019050919050565b600060c0830160008301516137fc6000860182613959565b5060208301518482036020860152613814828261343f565b9150506040830151848203604086015261382e828261343f565b91505060608301516138436060860182613959565b5060808301516138566080860182613959565b5060a083015161386960a0860182613959565b508091505092915050565b600060c08301600083015161388c6000860182613959565b50602083015184820360208601526138a4828261343f565b915050604083015184820360408601526138be828261343f565b91505060608301516138d36060860182613959565b5060808301516138e66080860182613959565b5060a08301516138f960a0860182613959565b508091505092915050565b60808201600082015161391a6000850182613959565b50602082015161392d6020850182613959565b50604082015161394060408501826132f7565b50606082015161395360608501826133e8565b50505050565b6139628161410d565b82525050565b6139718161410d565b82525050565b600061398382856134b1565b915061398f82846134b1565b91508190509392505050565b60006020820190506139b06000830184613306565b92915050565b60006040820190506139cb6000830185613306565b6139d86020830184613306565b9392505050565b60006060820190506139f46000830186613306565b613a016020830185613306565b613a0e6040830184613968565b949350505050565b6000608082019050613a2b6000830187613306565b613a386020830186613306565b613a456040830185613968565b8181036060830152613a578184613406565b905095945050505050565b60006020820190508181036000830152613a7c8184613315565b905092915050565b60006020820190508181036000830152613a9e818461338a565b905092915050565b6000602082019050613abb60008301846133f7565b92915050565b60006020820190508181036000830152613adb8184613478565b905092915050565b600060a0820190508181036000830152613afd8188613478565b90508181036020830152613b118187613478565b9050613b206040830186613968565b613b2d6060830185613968565b613b3a6080830184613968565b9695505050505050565b60006020820190508181036000830152613b5d816134e2565b9050919050565b60006020820190508181036000830152613b7d81613505565b9050919050565b60006020820190508181036000830152613b9d81613528565b9050919050565b60006020820190508181036000830152613bbd8161354b565b9050919050565b60006020820190508181036000830152613bdd8161356e565b9050919050565b60006020820190508181036000830152613bfd81613591565b9050919050565b60006020820190508181036000830152613c1d816135b4565b9050919050565b60006020820190508181036000830152613c3d816135d7565b9050919050565b60006020820190508181036000830152613c5d816135fa565b9050919050565b60006020820190508181036000830152613c7d8161361d565b9050919050565b60006020820190508181036000830152613c9d81613640565b9050919050565b60006020820190508181036000830152613cbd81613663565b9050919050565b60006020820190508181036000830152613cdd81613686565b9050919050565b60006020820190508181036000830152613cfd816136a9565b9050919050565b60006020820190508181036000830152613d1d816136cc565b9050919050565b60006020820190508181036000830152613d3d816136ef565b9050919050565b60006020820190508181036000830152613d5d81613712565b9050919050565b60006020820190508181036000830152613d7d81613735565b9050919050565b60006020820190508181036000830152613d9d81613758565b9050919050565b60006020820190508181036000830152613dbd8161377b565b9050919050565b60006020820190508181036000830152613ddd8161379e565b9050919050565b60006020820190508181036000830152613dfd816137c1565b9050919050565b60006020820190508181036000830152613e1e8184613874565b905092915050565b6000602082019050613e3b6000830184613968565b92915050565b6000613e4b613e5c565b9050613e57828261418b565b919050565b6000604051905090565b600067ffffffffffffffff821115613e8157613e806142f2565b5b613e8a82614335565b9050602081019050919050565b600067ffffffffffffffff821115613eb257613eb16142f2565b5b613ebb82614335565b9050602081019050919050565b6000819050602082019050919050565b6000819050602082019050919050565b600081519050919050565b600081519050919050565b600081519050919050565b600081519050919050565b6000602082019050919050565b6000602082019050919050565b600082825260208201905092915050565b600082825260208201905092915050565b600082825260208201905092915050565b600082825260208201905092915050565b600082825260208201905092915050565b600081905092915050565b6000613f998261410d565b9150613fa48361410d565b9250827fffffffffffffffffffffffffffffffffffffffffffffffffffffffffffffffff03821115613fd957613fd8614236565b5b828201905092915050565b6000613fef8261410d565b9150613ffa8361410d565b92508261400a57614009614265565b5b828204905092915050565b60006140208261410d565b915061402b8361410d565b9250817fffffffffffffffffffffffffffffffffffffffffffffffffffffffffffffffff048311821515161561406457614063614236565b5b828202905092915050565b600061407a8261410d565b91506140858361410d565b92508282101561409857614097614236565b5b828203905092915050565b60006140ae826140ed565b9050919050565b60008115159050919050565b60007fffffffff0000000000000000000000000000000000000000000000000000000082169050919050565b600073ffffffffffffffffffffffffffffffffffffffff82169050919050565b6000819050919050565b82818337600083830152505050565b60005b83811015614144578082015181840152602081019050614129565b83811115614153576000848401525b50505050565b6000600282049050600182168061417157607f821691505b6020821081141561418557614184614294565b5b50919050565b61419482614335565b810181811067ffffffffffffffff821117156141b3576141b26142f2565b5b80604052505050565b60006141c78261410d565b91507fffffffffffffffffffffffffffffffffffffffffffffffffffffffffffffffff8214156141fa576141f9614236565b5b600182019050919050565b60006142108261410d565b915061421b8361410d565b92508261422b5761422a614265565b5b828206905092915050565b7f4e487b7100000000000000000000000000000000000000000000000000000000600052601160045260246000fd5b7f4e487b7100000000000000000000000000000000000000000000000000000000600052601260045260246000fd5b7f4e487b7100000000000000000000000000000000000000000000000000000000600052602260045260246000fd5b7f4e487b7100000000000000000000000000000000000000000000000000000000600052603260045260246000fd5b7f4e487b7100000000000000000000000000000000000000000000000000000000600052604160045260246000fd5b600080fd5b600080fd5b600080fd5b600080fd5b6000601f19601f8301169050919050565b7f6d696e74696e672070726963652069732074686520736d616c6c65722074686160008201527f6e20616c6c6f77656420616d6f756e7400000000000000000000000000000000602082015250565b7f63757272656e74206d696e74696e6720636f756e74206f766572666c6f77732060008201527f746f74616c206d696e74696e6720636f756e742e000000000000000000000000602082015250565b7f4552433732313a207472616e7366657220746f206e6f6e20455243373231526560008201527f63656976657220696d706c656d656e7465720000000000000000000000000000602082015250565b7f4552433732313a20746f6b656e20616c7265616479206d696e74656400000000600082015250565b7f54686520636f6c6c656374696f6e206964206e6f206578697374732e00000000600082015250565b7f4552433732313a207472616e7366657220746f20746865207a65726f2061646460008201527f7265737300000000000000000000000000000000000000000000000000000000602082015250565b7f4552433732313a20617070726f766520746f2063616c6c657200000000000000600082015250565b7f457863656564656420746865206c696d69746564206e756d626572206f66206d60008201527f696e74696e672e00000000000000000000000000000000000000000000000000602082015250565b7f4552433732313a206f70657261746f7220717565727920666f72206e6f6e657860008201527f697374656e7420746f6b656e0000000000000000000000000000000000000000602082015250565b7f4552433732313a20617070726f76652063616c6c6572206973206e6f74206f7760008201527f6e6572206e6f7220617070726f76656420666f7220616c6c0000000000000000602082015250565b7f4552433732313a2062616c616e636520717565727920666f7220746865207a6560008201527f726f206164647265737300000000000000000000000000000000000000000000602082015250565b7f4552433732313a206f776e657220717565727920666f72206e6f6e657869737460008201527f656e7420746f6b656e0000000000000000000000000000000000000000000000602082015250565b7f45524337323155524953746f726167653a2055524920736574206f66206e6f6e60008201527f6578697374656e7420746f6b656e000000000000000000000000000000000000602082015250565b7f4552433732313a206d696e7420746f20746865207a65726f2061646472657373600082015250565b7f45524337323155524953746f726167653a2055524920717565727920666f722060008201527f6e6f6e6578697374656e7420746f6b656e000000000000000000000000000000602082015250565b7f4552433732313a20617070726f76656420717565727920666f72206e6f6e657860008201527f697374656e7420746f6b656e0000000000000000000000000000000000000000602082015250565b7f4552433732313a207472616e73666572206f6620746f6b656e2074686174206960008201527f73206e6f74206f776e0000000000000000000000000000000000000000000000602082015250565b7f4552433732314d657461646174613a2055524920717565727920666f72206e6f60008201527f6e6578697374656e7420746f6b656e0000000000000000000000000000000000602082015250565b7f556e617574686f72697365642041636365737300000000000000000000000000600082015250565b7f4552433732313a20617070726f76616c20746f2063757272656e74206f776e6560008201527f7200000000000000000000000000000000000000000000000000000000000000602082015250565b7f4552433732313a207472616e736665722063616c6c6572206973206e6f74206f60008201527f776e6572206e6f7220617070726f766564000000000000000000000000000000602082015250565b7f62616c616e636520697320746f6f20736d616c6c2c20796f752063616e27742060008201527f70617920666f72206d696e74696e672e00000000000000000000000000000000602082015250565b61495b816140a3565b811461496657600080fd5b50565b614972816140b5565b811461497d57600080fd5b50565b614989816140c1565b811461499457600080fd5b50565b6149a08161410d565b81146149ab57600080fd5b5056fea26469706673582212206ff189f54d9ba82883fb9ce17565b47d4e0ef98c0c2f92e3b16bd665e91e320264736f6c63430008050033",
  "linkReferences": {},
  "deployedLinkReferences": {}
}